S10A007C0C8426020C83B67C
S10600857EC1BD78
S123C0007EC0498D0327FC39B6A00085012706B6A001847F394F398D243402810D270BB727
S123C020A0010C799679917825100F798D0F860DB7A0018D08860AB7A0013502393402B6A1
S123C040A000850227F935023910CE01EE966E8155260A9E6FA684811226026E848E0218C2
S123C0606F83300126FA8E02176F809F19A60243A702A10226063001630120F19F719F274C
S123C0809F233089FF389F211F148EC0CCCE0076C612BDC1ACCE00A7C604BDC1AC863997D8
S123C0A0F0BDC4BA8E00B59F8DCECBD1C60AEF815A26FB8EC101BDD0E88EC0C49F6F8655FD
S123C0C0976E200412BDC4D47EC4223B10405000CBD10C8426020C83B600007EC1BD7EC1B9
S123C0E0BC7EC0CB7ECBD1804FC7525932C21BC32A1DC2BDC1CC00000000000000000000F7
S123C10000003638303920455854454E4445442042415349430D284329203139383220425A
S123C12059204D4943524F534F46540D0D0034169E76DC789F6AD76C976D35960F738E00D5
S123C140F4C601BDC003810826075A27EF301F20348115260A5A27E48608BDC01720F681F3
S123C160031A012705810D260D4F3401BDD0A86F848E00F33581812025C9817B24C5C1FA9E
S123C18024C1A7805CBDC01720B92705BDCEC49F7A6E9F007A7EC5A396732603BDC0080FFF
S123C1A073975310260C6F97567ECE22A680A7C05A26F939399D8227FB7ECA033B813A24F4
S123C1C00A812026020E7C803080D039D3C6D43AD3DF00ADD66BD6C0CED7CE08CC84CE9DB2
S123C1E0CE27CE13D770D738D741D8B2D8E4D806DA6CD840DF3ECE32CE4FCE56C198CC757D
S123C200DA74DB34DB0479D11179D1087BD2187BD2DD7FD84950CA5C46CA5B464FD247CFA4
S123C2205245CD4259C5454C53C549C6444154C15052494ED44FCE494E5055D4454EC44E05
S123C2404558D44449CD524541C45255CE524553544F52C55245545552CE53544FD0504F95
S123C2604BC5434F4ED44C4953D4434C4541D24E45D7455845C354524FCE54524F46C6443C
S123C28045CC4445C64C494EC552454E55CD454449D4544142A854CF5355C2544845CE4EDC
S123C2A04FD4535445D04F46C6ABADAAAFDE414EC44FD2BEBDBC46CE5553494EC75347CE84
S123C2C0494ED44142D35553D2524EC45349CE504545CB4C45CE535452A45641CC4153C3F6
S123C2E0434852A44154CE434FD35441CE4558D04649D84C4FC7504FD35351D2484558A4E7
S123C3004C454654A45249474854A44D4944A4494E4B4559A44D45CD5641525054D2494E31
S123C3205354D2535452494E47A4C4E8C636C693C5BAC693C6C4C690D06DC6F2C79FC5BD6F
S123C340C884CAD5C7D9C62BC59CC670C5C1CEDEC5E6CEE5C5F7C4B8C18ADA67DA68DCE371
S123C360DC27E3D1DD6DD8F34E46534E52474F4446434F564F4D554C425344442F30494418
S123C380544D4F534C535354434E4644414F444E494F464D4E4F4945445355464E45204553
S123C3A052524F520020494E20000D4F4B0D000D425245414B003064C6129F0FA6848080F3
S123C3C02615AE019F119E3B27099C1127099E0F3A20E59E119F3B9E0F4D398D17DE41333B
S123C3E0419E433001A68236029C4726F8DF45394F58D31FC3003A250810DF171093172580
S123C400EEC60CBDC4D4BDD0ACBDD0FB8EC3683A8D318D2F8EC39DBDD0E896684C2703BD41
S123C420D511BDD0AC8EC3AABDD0E8BDC13CCEFFFFDF6825F69F839D7C27F0250BBDCF9AD9
S123C4407EC571A6807ED0FDBDC7179E2B9FF1BDCF9AD7038D4C2512DC47A384D31BDD1B7F
S123C460EE843702A7809C1B26F896F3271CDC1BDD43DB038900DD41BDC3DBCE00EF370258
S123C480A7809C4526F89E419F1B8D368D02209B9E19EC8427213304A6C026FCEF84AE84F9
S123C4A020F0DC2B9E19EE84270910A3022306AE8420F31A019F473926FB9E196F806F80F5
S123C4C09F1B9E19BDC66B9E279F23BDC59C9E1B9F1D9F1F8E00C99F0BAEE410DE216FE22E
S123C4E00F2D0F2E0F086E8486809708BDC739BDC3B6326226049E0F3285C609BDC3F0BD00
S123C500C698DC683416C6A0BDC9FBBDC8CFBDC8CDD654CA7FD450D750108EC5207EC976A0
S123C5208ED211BDD3609D8281A426059D7CBDC8CDBDD3B9BDC972DC3B3406868034021CD2
S123C540AF8D609E839F2FA6802707813A27227ECA03A68197002775EC80DD689F83968C5A
S123C560270F865BBDC0179668BDD518865DBDC0179D7C8D0220C827294D102A01BB81FF4A
S123C580270F819E22C9BEC0EF481F893A9D7C6E949D7C8197102714F37ECA039E19301FE5
S123C5A09F3339BDC008270A8103271581132703977339BDC00827FB20EE7EE47C9D822023
S123C5C0021A0126319E839F2F060032629E688CFFFF27069F299E2F9F2D8EC3AE0D001020
S123C5E02AFE3F7EC417260EC6209E2D1027FE139F839E299F6839272CBDCB6D34069E27DA
S123C6009D82270CBDC9F9BDCEC4301F9C7122181F10A3E125121F0383003A250B931B2594
S123C62007DF219F277EC4C77EC4019D821027FE91BDC4C720191F899D7CC1A02716C1A1B6
S123C6402645C603BDC3F0DE839E6886A134528D037EC53F9D82BDC7178D403001DC2B103D
S123C660936822029E19BDC4A62517301F9F833926FD86FF973BBDC3B61F148121270BC656
S123C680048CC60E7EC4037ECA0335529F68DF838D068C8D069F8339C63A865FD7015F9EEB
S123C6A0831F98D6019701A68427EC3404A1E027E63001812227EA4C26023001818626E72C
S123C6C00C0420E3BDC8CD9D8281812705C6A2BDC9FB964F26130F048DB64D27BA9D7C817F
S123C6E08426F50A042AF19D7C9D821025FF657EC577BDCE92C681BDC9FB340281A127047B
S123C70081A026830A53260535047EC6389D7C8D06812C27EF35849E749F2B24618030973E
S123C72001DC2B811822DB58495849D32B5849DB018900DD2B9D7C20E2BDCADE9F3BC6AE3B
S123C740BDC9FB96063402BDC8E2350246BDC8D410270C2B9E52DC2110A30224119C1B2524
S123C7600DE684BDCC949E4DBDCDCA8E00569F4DBDCDFCDE4D9E3B3726A78410AF02393FC7
S123C7805245444F0D007EC403960927079E319F687ECA038EC77EBDD0E89E2F9F8339C6F5
S123C7A0169E68300127DF8D01398122260BBDC9D0C63BBDC9FBBDD0EB8E00F36F848D0630
S123C7C0C62CE7842016BDD0FBBDD0F8BDC13C240532647EC5C9C62E399E33864F97099F1E
S123C7E035BDCADE9F3B9E839F2B9E35A684260996092651BDD0FB8DCD9F839D7CD6062774
S123C800239E8397018122270E301F4F9701BDC12E863A9701862C9702BDCCA5BDC9D5BD95
S123C820C7542006BDD45EBDD37F9D822706812C1026FF529E839F359E2B9F839D822721EE
S123C840BDC9F9209C9F83BDC69830014D260AC606EE812741EC81DD31A684818626E62033
S123C860989E35D6091026FD37A68427068EC8737ED0E8393F45585452412049474E4F520F
S123C88045440D0026049E742003BDCADE9F3BBDC3B62704C60020471F143003BDD360A6D6
S123C8A06897549E3BBDD10EBDD37F3069BDD3E2E068270CAE6E9F68AEE8109F837EC53FAA
S123C8C032E8129D82812C26F49D7C8DBD8D131CFE7D1A010D0625032A998C2B96C6187EE6
S123C8E0C4038D6E4F8C34043402C601BDC3F0BDC9AF0F3F9D8280AD25138103240F8101B2
S123C90049983F913F2564973F9D7C20E9D63F26331024006B8B072467990610270477899E
S123C920FF340248ABE08EC20630863502A18424558D9C34028D299E3D3502261D4D10271C
S123C940006A204B0806598D098EC957D73F0F0620D99E837EC66B64CA7BA184243120D349
S123C960EC0134068D08D63F16FF7B7ECA03D654A68435203404D64F9E50DE5234546EA449
S123C9809E74A6E0272681642703BDC8CF9F3D3504815A2719817D271554D70A3552975C32
S123C9A09F5DDF5F3504D761D854D762D64F39BDDBFC0F069D7C24037ED45EBDCB29245047
S123C9C0812E27F481A7274081A627E38122260A9E83BDCC9F9E649F833981A3260D865A19
S123C9E0BDC8E6BDCB7443537ECC7B4C272E8D06BDC8E2C6298CC6288CC62CE19F008326C6
S123CA00020E7CC6027EC403867DBDC8E67ED635BDCADE9F52960626957ED3609D7C1F8963
S123CA20589D7CC13823037ECA033404C12A251EC130241C8DC0A6E4BDC8E28DBCBDC8D2A2
S123CA403502DE523442BDCE92350234068E8D9E3504BEC0F43AAD947EC8CF864F9703BD47
S123CA60CB74DD01BDD396BDCB740D0326069401D40220049A01DA027ECC7BBDC8D42610DD
S123CA8096618A7F945D975D8E005CBDD3E220360F060A3FBDCDDED7569F589E5FBDCDE0AA
S123CAA096563404A0E0270786012403D656409754DE585C5A2604D654200BA680A1C02782
S123CAC0F3C6FF240150CB0159D40A2702C6FF7ED3C8BDC9F9C6018D089D8226F5395F9DD1
S123CAE082D70597379D828D401025FF165FD7069D7C25048D33250A1F899D7C25FC8D29CB
S123CB0024F8812426060306CB809D7CD7389A088028102700750F089E1BDC379C1D2712DD
S123CB2010A381273E300520F381412504805B80A5398E0074EEE41183CA132728DC1FDD80
S123CB4043C30007DD419E1D9F47BDC3DB9E419F1F9E459F1D9E47DC37ED814F5FED84EDFC
S123CB6002A7049F393990800000009D7CBDC8CD96542B5DBDC8CF964F819025088ECB66D0
S123CB80BDD3E2264CBDD414DC5239DC053406125F9E3734148DD435349F37DE5234605C38
S123CBA09D82812C27EBD703BDC9F33506DD059E1D9C1F2721DC3710A3842706EC02308B45
S123CBC020EFC6129605260BD603E1042759C6108CC6087EC403CC0005DD64DC37ED84D67F
S123CBE003E704BDC3F09F41C60B4F0D0527053506C30001ED058D5DDD6430020A0326E82C
S123CC009F0FD30F1025F7F91F01BDC3F4830035DD1F4F301FA7059C0F26F89E41961F93D9
S123CC2041ED029605262DE604D7034F5FDD643506DD5210A305243ADE6427048D17D35269
S123CC4030020A0326E7EDE358495849E3E1308B30059F393986109745EC05DD174F5F5850
S123CC6049250F086509642404D31725050A4526EE397ECBCE1F40931F214F0F06DD50C6E1
S123CC80907ED3CEBDC8CFCE01F0BDD52832628E01EF200B9F4D8D5C9F58D75639301F86D0
S123CCA0229701970230019F629F58C6FF5CA680270C91012704910226F381222702301FF6
S123CCC09F64D756DE62118301F022078DC69E62BDCDCC9E0B8C00F12605C61E7EC4039679
S123CCE056A700DC58ED0286FF97069F0D9F5230059F0B390F074F3406DC23A3E010932154
S123CD00250ADD239E2330019F253584C61A030727CA8D04350420DE9E279F234F5FDD4B71
S123CD209E219F478E00C99C0B27048D3220F89E1B9C1D27048D2220F89F419E419C1F2745
S123CD4035EC02D341DD41A6012AF0E60458CB053A9C4127E88D0820F8A60130022A14E6D7
S123CD60842710EC02109323220910934723049F4BDD473005399E4B27FB4FE6845AD34750
S123CD80DD439E239F41BDC3DD9E4BDC45ED029E45301F7ECD1ADC523406BDC9AFBDC8D2ED
S123CDA035109F62E6849E52EB842405C61C7EC403BDCC949E62E6848D109E4D8D228D0CB9
S123CDC09E628D1CBDCCD37EC8F4AE02DE255C2004A680A7C05A26F9DF2539BDC8D29E5253
S123CDE0E6848D182613AE07301F9C2326083404D323DD233504300139AE02399C0D260766
S123CE009F0B301B9F0D4F398D037ECC7A8DCC0F065D39BDCE95C601BDCCF49653BDCC981F
S123CE20A78432627ECCD38D0220DF8DE0275EE684398D484FE1842303E6844F3406BDCCC4
S123CE40969E4D8D9B35043A3504BDCDCC20D58D2BA0844020DFC6FFD7539D82812927052F
S123CE60BDC9F98D2D8D1527245F4AA18424CD1F89E08450D15323C4D65320C0BDC9F3EEF2
S123CE80E4AE659F4DA664E66432671F357ECBD19D7CBDC8CDBDCB704D26F20E82BDCE0D60
S123CEA0102702E1DE839F833AA68434526F849D82BDD45E3552A784DF83398D079F2BBD7E
S123CEC0C9F920CEBDC8CD96542BC2964F819022BCBDD4149E52398DEEE6847ECC7A8DDBC2
S123CEE09E2BE784393401BDC717BDC4A29F66350127129D82271381A726099D7C2706BDA7
S123CF00C717270639CEFFFFDF2B32629E66BDD0ACBDC195EC8426037EC4229F66EC02100F
S123CF20932B22F4BDD518BDD0F89E668D10AE9F0066CE00F4A6C027D5BDD0FD20F730049D
S123CF40108E00F4A68027512B15813A260DE684C18427F0C18227EC8C86218D3020E5CE90
S123CF60C0E281FF2604A6803345847F334A6DC427E7A0C42AF6ABC4EE414A2B066DC02A10
S123CF80FC20F7A6C48D066DC02AF820B7108C01ED2406847FA7A06FA4399E83CE00F30F1C
S123CFA0430F44A68027210D43270FBDCB29241881302504813923100F438120270A974232
S123CFC0812227380D442719A7C02706813A27CF20D16FC06FC01F308300F18E00F29F83C1
S123CFE039813F2604868720DF81272613CC3A82EDC10F42A68027D0914227CCA7C020F438
S123D00081302504813C25C0301F34500F41CEC0E20F42334AA6C4273110AE41AEE4E6A056
S123D020E08027FAC180263832623540DA4296412606C1842606863AEDC12094E7C0C18623
S123D04026020C44C18227AA2086CEC0E7034126C03550A680A7C0BDCB2925EC034320E8D9
S123D0600C424A27AE313FE6A02AFC20AF27398D0139BDDFD2273E819F2753812C27378134
S123D0803B2760BDC8E2960634022606BDD525BDCC9D8D573504BDC12E5D26089D82812C68
S123D0A027148D549D8226CF860D2051BDC12E27F7966C26F339BDC12E270AD66CD16B259A
S123D0C0068DE5201ED66CD06A24FC502010BDCE9081291026F92CBDC12ED06C23058D18A5
S123D0E05A26FB9D7C7ED075BDCC9FBDCDDE5C5A27C3A6808D0720F786208C863F7EC01788
S123D1008ED60C2009BDD27B035403622003BDD27B5D102702808E005C1F895D276CD04FC8
S123D1202769250A974F966197548E004F50C1F82F594F6401BDD206D6622A0B6301630277
S123D1406303630443890097639653996097539652995F97529651995E97519650995D976A
S123D160505D2A4425028D5D5F9650262E965197509652975196539752966397530F63CB56
S123D18008C1282DE44F974F9754398D6D5F20A85C086309530952095109502AF3964F34A8
S123D1A004A0E0974F23DE8C2508086386009763200C0C4F27280650065106520653240400
S123D1C08D0D27EE39035403500351035203539E5230019F5226069E5030019F5039C60A65
S123D1E07EC4038E0012A6049763A603A704A602A703A601A702965BA701CB082FE8966330
S123D200C008270C6701660266036604465C26F43981000000008D6327608D78860097134A
S123D220971497159716D6538D22D663D78BD6528D1AD663D78AD6518D12D663D789D65085
S123D2408D0CD663D788BDD3577ED1682795439613562726241696169B6097169615995F7F
S123D26097159614995E97149613995D46971306140615061606634F20D539EC0197618A7D
S123D28080DD5DD661D854D762EC03DD5FA684975CD64F394D27169B4F464928108B8097B1
S123D2A04F270C966297543996544320023262102AFED27ED1DEBDD3AB270D8B0225F40F8E
S123D2C062BDD1190C4F27EB398420000000BDD3AB8ED2C95FD762BDD3608C8D9E277300BA
S123D2E04F8DB10C4F27CC8E0013C604D703C6019650915D26139651915E260D9652915F55
S123D3002607965391602601431FA859240AE7800A032B34272EC6011F8A250E0860095FAF
S123D320095E095D25E32BC820DF966090539760965F9252975F965E9251975E965D9250E2
S123D340975D20D8C64020D0565656D7638D087ED168C6147EC4039E139F509E159F5239C3
S123D3603402EC0197548A80DD500F63E684AE039F52D74F35828E004520068E00408C9E18
S123D3803B964FA78496548A7F9450A7019651A702DE52EF0339966197549E5C9F4F0F6398
S123D3A0965E975196549E5F9F5239DC4FDD5C9E519F5E9E539F604D39D64F2708D65459DF
S123D3C0C6FF250150398DF1D7500F51C68896508080D74FDC74DD52976397547ED1640F50
S123D3E05439E68427D3E601D8542BD1D64FE184261DE601CA7FD450E1012613D651E102E3
S123D400260DD652E1032607D653E00426013956D85420ABD64F273DC0A096542A05035B82
S123D420BDD1C78E004FC1F82E06BDD1FA0F5B390F5B96544906507ED206D64FC1A0241D8E
S123D4408DD2D7639654D754808086A0974F965397017ED164D750D751D752D753399E74ED
S123D4609F549F4F9F519F529F479F452564BDDB9B812D260403552004812B26049D7C25F8
S123D48051812E2728814526289D7C256481A7270E812D270A81A62708812B2704200603F1
S123D4A0489D7C254C0D48270800472004034626CC96479045974727122A09BDD2CE0C47C0
S123D4C026F92007BDD2B60A4726F996552A8E7ED635D645D046D7453402BDD2B63504C060
S123D4E0308D022098BDD37BBDD3C88E00407ED10ED6475858DB475880303404ABE097478B
S123D500209F9B3EBC1FFD9E6E6B27FD9E6E6B28008EC3A48D0CDC68DD50C69043BDD3D263
S123D5208D037ED0E8CE01F18620D6542A02862DA7C0DF6497548630D64F102700C64FC135
S123D5408022088ED50CBDD21686F797458ED507BDD3EC2E0F8ED502BDD3EC2E0EBDD2B62B
S123D5600A4520F1BDD2CE0C4520E2BDD100BDD414C60196458B0A2B09810B24054A1F8952
S123D58086024A4A9747D7452E0DDE64862EA7C05D27048630A7C08ED611C6809653AB03E2
S123D5A097539652A90297529651A90197519650A98497505C565928E32403C00B50CB2F3C
S123D5C030041F98847FA7C00A452604862EA7C053C4808CD63526C4A6C2813027FA812E5D
S123D5E02602335F862BD647271C2A03862D50A7428645A741862F4CC00A24FBCB3AED4371
S123D6006F452004A7C46F418E01F1398000000000FA0A1F0000989680FFF0BDC000018616
S123D620A0FFFFD8F0000003E8FFFFFF9C0000000AFFFFFFFF964F27020354399F64BDD3C5
S123D6407B8D058D088E00407ED2169F64BDD3769E64E680D7559F648DEE9E6430059F649B
S123D660BDD10E8E00450A5526EE39BDD3B92B1F27158D10BDD37B8D0E8E00408DCA8ED2F4
S123D68011BDD10E7ED43A9EB19F509EB39F52BED6BC9F5DBED6BE9F5FBDD21CDC8AC365F8
S123D6A08BDDB3DD52DC88C9B08905DDB1DD500F548680974F961597637ED16840E64DAB2D
S123D6C0BDD3AB8ED705D661BDD2D5BDD3AB8DB40F62965CD64FBDD1088ED70ABDD10596D4
S123D6E05434022A09BDD10096542B05030ABDD6358ED70ABDD10E35024D2A03BDD6358EDA
S123D700D70F7ED63C83490FDAA27F000000000584E61A2D1B862807FBF8879968890187A7
S123D7202335DFE186A55DE72883490FDAA2A154468F138F524389CD8ED76BBDD10E7ED6C8
S123D740C0BDD37B0F0A8DF68E004ABDD3818E0040BDD3600F54960A8D0C0D4F1027FA7E10
S123D7608E004A7ED2DB34027ED6EE81490FDAA2965434022A028D24964F34028181250591
S123D7808ED2118DDE8ED7A0BDD63C3502818125068ED76BBDD10535024D2A037ED635399B
S123D7A00B76B383BDD3791EF4A6F57B83FCB0107C0C1F67CA7CDE53CBC17D1464704C7DFF
S123D7C0B7EA517A7D6330887E7E9244993A7E4CCC91C77FAAAAAA138100000000037F5EBD
S123D7E056CB7980139B0B6480763893168238AA3B20803504F334813504F3348080000097
S123D8000080317217F8BDD3B9102FF3C48ED7F2964F808034028680974FBDD10E8ED7F73D
S123D820BDD2DB8ED211BDD1058ED7DDBDD63C8ED7FCBDD10E3504BDD4E58ED8017ED216EC
S123D840BDD3AB8ED60CBDD36027674D26037ED1868E004ABDD3815F96612A10BDD43A8E7E
S123D860004A9661BDD3EC260343D601BDD3983404BDD8068E004ABDD2168D3635024610DC
S123D88025FDB2398138AA3B29077134583E5674167EB31B772FEEE3857A1D841C2A7C6306
S123D8A059580A7E75FDE7C6803172181081000000008ED884BDD216BDD37B964F81882593
S123D8C0037ED2A8BDD43A96018B8127F44A34028E0040BDD1058ED889BDD64B0F6235026A
S123D8E0BDD29439BDD3B92B037ED43A03548DF97ED635BDDD21326286019798BDC4A21027
S123D90025ED7FBDCF3E1F208300F5D797DC2BBDD518BDD0F88E00F4D69826255FBDDA47D5
S123D920BDE1EC250B80303402860A3DEBE020EDC001C90181412605BDD0A820BB814C2623
S123D9400B8D310F98BDD0A820C33262810D260D8D22BDD0A88E00F49F837EC44B814527E4
S123D960F181512606BDD0A87EC4228D0220AD812026108CC6F9A6842708BDC01730015A25
S123D98026F439814426486D8427F78D045A26F7390A97311F3121A621A7A426F839814937
S123D9A027138158270D8148265C6F841F108300F5D7978DBFBDDA47810D278E811B272574
S123D9C0810826228C00F427EC8D458DC420E6814326CB6D84270EBDDA47250220F5A7809A
S123D9E08D375A26EE39D697C1F9260220C734106D8026FCE682E701ACE426F83262A78076
S123DA008D170C9720AF810826128D045A26FB398C00F427D0301F86087EC017814B270545
S123DA20805327013934028D1E3402A68427166D6126068DE430012003BDD991A684A1E49B
S123DA4026E95A26E635A0BDC003817F24F9815F2602861B810D270E811B270A81082706EC
S123DA60812025E31A0139864F978C398600D6791D7ECC7BBDC9F6DC1F3406BDCADEBDC921
S123DA80F335061E109C1F26517ECC7B9D7CBDC9F6BDCADE3410EC0210932123049327233B
S123DAA012E684BDCCF43410AE62BDCDCA3550AF423440BDCEBF34045D271FC6FF8129271C
S123DAC003BDCEBF3404BDC9F3C6AEBDC9FB8D2E1F13AE62A684A06124037ECBD14CA1E415
S123DAE02402A7E4A6611E89AE025A3A4D270DA1E42302A6E41F891E31BDC1AC3596BDC859
S123DB00E27ECDDBBDC9F6BDCE923404BDC9F9BDC8E2BDC9F396062605BDCE952003BDCE34
S123DB202B3404E661BDCC9635062705A7805A26FB7ECE22BDC9F6BDC8E2C6013404960623
S123DB402610BDCE95E7E42791BDC9F9BDC8E2BDC8D29E523410BDC9F9BDDAFE3414BDC995
S123DB60F3AE63BDCDE03404E1662523A661271CE6665A3A3184EE62E661A6E4A0664CA179
S123DB8061250CA680A1C0260C5A26F7E666215F32677ECC7A6C66302120D98126265C321F
S123DBA0620F520F538E00529D7C814F2712814827239D82200C81381022EE47C6038D2A3C
S123DBC09D7C25F20F500F510F060F630F54C6A0D74F7ED1689D7C250BBDCB2925E6814758
S123DBE024E28007C6048D0220EB680169841025F5EC5A26F58030AB01A7013935400F0688
S123DC009E839D7C8126279981B0275E81FF26089D7C8183102700AB9F836EC49E68300171
S123DC2026D9C6167EC403AE9F00838CFF83102700748D238DE6BDC9F6C680D708BDCADE0E
S123DC408D25BDC9F3C6AEBDC9FB9E4BDC83ED84DC39ED027EC690C6B0BDC9FBC680D708F3
S123DC608A80BDCAE39F4B7EC8CF8DEB3410BDC9EE8DF43540C632AE4227A9109E83EEC46C
S123DC80DF83A6043402EC84EE023476BDD381BDC8CD3576ED84EF023502A7049D8210268D
S123DCA0ED61109F83399D7C8D0934108D2D3540AFC4395F9D7C240680301F899D7C9E8D9B
S123DCC0583A398DEEAE843410BDC9EE8E004F96062707BDCDDE9E52960639C6AEBDC9FB47
S123DCE07ECEC41027EEEABDC717BDC4A29F939D82271081A7263B9D7C27048D2420048693
S123DD00FF972BDE938CEEC4ECC42706EC42932B23F49E938D15BDC4C29E93BDC4927EC413
S123DD2022BDC7177EC1B5A6C0A78011931B26F79F1B39BDDC1C9D7C8122260BBDC9D0C614
S123DD403BBDC9FBBDD0EB327EBDC7CC3262BDCADE9F3BBDC8D28E00F34FBDCCA37EC754CC
S123DD60BDC7179E2B399E919F2B7EC4A2BDC4C7CC000ADD95DD8F5FDD919D8224068DE0A6
S123DD809F959D82271BBDC9F924068DD39F919D82270EBDC9F924068DC69F8F2749BDC145
S123DDA0B58DC39F939E958DBF9C93253A8D1CBDDE41BDC4908DAF9F938D3A8D0F8D36BD34
S123DDC0DEDCBDC4C7BDC4907EC422864F97989E93DC958D150D982602ED02AE848D0BD327
S123DDE08F250481FA25EE7ECBD13406EC84350626023262399E19301F30018DED300330D1
S123DE0001A68427F49F0F4A270C4A272A4A26EF8603A78020E7EC016A0227014FE6036AB9
S123DE200427015FED01DD2BBDC4A29E0F25E1DC476C80ED8420C66F84AE01AE029F4720C9
S123DE40EA9E1920049E8330018D9F300230019F839D7C4D27EF2AF99E8381FF27EF81A27D
S123DE6027128184270E818126E79D7C81A0270481A126DB9D7C25049D8220D79E833410D7
S123DE80BDC7179E83A682BDE1EC25F930011F10E061C0052720250A3384503085BDDD2B95
S123DEA020149F479E1B9F435030859F419F1BBDC3DB9E459F8335108601A784A702A7045F
S123DEC0D62B2604C6016C02E701D62C2604C6016C04E7039D82812C279A209C9E19301F5A
S123DEE03001EC02DD68BDDDEA30033001A68427EF4A271B800226F334108EDF39BDD0E80C
S123DF00AEE4EC01BDD518BDD511BDD0A835103410EC01DD52BDDBC4BDD5253540C60530D4
S123DF2001A68427055AA7C020F530C45D27BE31C433C5BDDD2B30A420B3554C2000BDCED5
S123DF40C78E01F0C60434045F860408530952594A26F85D260AA6E44A27058C01F0270CD8
S123DF60CB30C1392302CB07E7806F8435045A26D532628E01EF7ECC9F860197995ABDE11F
S123DF801A9D8210270093D793BDC8E2BDC8D29E529F4DD699BDCE34BDD0EB9E52D699E091
S123DFA0845A102B014FBDD0F820F6D7939F0F86029799A684812527C4812026070C99302B
S123DFC0015A26EF9E0FD6938625BDE11ABDC017202981B12701393262BDC8E4BDC8D2C6CA
S123DFE03BBDC9FB9E529F952006969727089E950F97E68426037ECBD1AE020F9A0F99A68E
S123E0008081211027FF728123275B5A2616BDE11ABDC0179D8226D296972603BDD0A89EEA
S123E020957ECDE0812B2609BDE11A8608979A20CC812E274E81251027FF70A184268B8117
S123E040242719812A26F6969A8A20979AC1022511A6018124260B5A30010C99969A8A1016
S123E060979A30010C990F980C995A2749A680812E271E812327F1812C2621969A8A409724
S123E0809A20E5A68481231026FF3F8601979830010C985A2720A680812327F5815E26166E
S123E0A0A1842612A101260EA102260AC1042506C00430040C9A301F0C99969A85082618D9
S123E0C00A995D2713A684802D270681FE260986088A049A9A979A5A9D821027FF3CD7937A
S123E0E0BDC8CD96999B9881111022EAE4BDE127301FBDD0E80F979D82270D9797813B2743
S123E10005BDC9F920029D7C9E95E684D093AE023AD6931026FEE47EE0143402862B0D9AD1
S123E1202703BDC0173582CE01F2C620969A85082702C62B0D542A040F54C62DE7C0C63066
S123E140E7C08401102601078ED50CBDD3EC2B15BDD525A68026FCA682A7018C01F126F7BC
S123E1608625A78439964F97472703BDE30F9647102B0081409B998009BDE22CBDE3A5BD8D
S123E180E3449647BDE3C39647BDE38B96982602335F4ABDE22CBDE2C74D2706C12A27021B
S123E1A0E7C06FC48E01F130019F0F963A901090992738A684812027EE812A27EA4F340209
S123E1C0A680812D27F8812B27F4812427F08130260EA6018D1625083502A78226FA20C702
S123E1E035024D26FB9E0F8625A7823981302504803A80C639969827014A9B472B014F3478
S123E200022A0A3402BDD2CE35024C20F49647A0E097478B092B199699800990478D0DBDA1
S123E220E3A5201D34028630A7C035024A2AF53996998DF8BDE38F86F790478DEF0F450FD3
S123E24097BDE34496982602DE399B4716FF43964F34022703BDE30F969827014A9B997F51
S123E26001F1D69AC40426037301F1BB01F1800934022A0A3402BDD2CE35024C20F4A6E48E
S123E2802B014F409B994CBB01F197450F97BDE3443502BDE3C396982602335FE6E02709B4
S123E2A0D647CB09D099F001F1862B5D2A03862D50A7418645A7C1862F4CC00A24FBCB3AD6
S123E2C0EDC16FC47EE1968E01F2E68434048620D69AC52035042708862AC12026021F897D
S123E2E03404A780E6842710C145270CC13027F2C12C27EEC12E26048630A782969A851018
S123E3002704C624E782840435042602E7823934404F9747D64FC18022118ED50CBDD216A2
S123E3209647800920ECBDD2CE0C478ED507BDD3EC2EF38ED502BDD3EC2E07BDD2B60A4704
S123E34020F135C03440BDD100BDD41435408ED611C6808D369653AB0397539652A902976E
S123E360529651A90197519650A98497505C565928E32403C00B50CB2F30041F98847FA7ED
S123E380C053C4808CD63526CA6FC40A452609DF39862EA7C00F97390A9726088603979752
S123E3A0862CA7C03996478B0A97454C800324FC8B059797969A8440260297973934028DC6
S11DE3C0CA35024A2B0A34028630A7C0A6E026ED3981891027F95C7ECA03B9
S9030000FC
