S1110000CCFC001700081700CA34061700A72E
S113000E8E000F270A338D03056FC0301F26FA307A
S113001E62AF8D02F910FECC2BAE1E34103062305E
S113002E8BAF8D02EF308D02F4AF8D02E9308D006F
S113003E7CAF8D02DB8E0000AF8D02D68ECD18AF55
S113004E8D02D58D15308D000AAF8D02CD17024766
S113005E160242C621E7C46F413932E8EAAEE81807
S113006E3410AEE81834108EC0803368EF66AFC11A
S113007E5CA6808D2B2704810D26F66F1FC10824E4
S113008E17810D2713A6808D1727FA810D270930A6
S113009E1FAFC130015C20D94FED646FC06FC03902
S11100AE812027028109391701EC7ECD033928
S11300BC3440EE6433CB3440EE662004A6C0A780F3
S10A00CC11A3E426F735D06F
S11300D3344033E432E9FF68308D01C7341030C94A
S11300E3FF68CC001117FFD13262308D01C4341084
S11300F317017C3262308D01D534101701713262DD
S113010330C9FF6834101701663262C6411D3406D4
S113011317014D326217017420001700EA5D26FAB5
S11301231700D6E7C9FF7930C9FF79341017016A7C
S11301333262170157C6411D34061700D3326217C2
S1130143014ACCCC001F01EC882BEDC9FF7A308D1A
S1130153018A3410170118326230C9FF7A1F103430
S113016306170136326230C9FF7A1F10C300013407
S11301730617012632621701134F5FED5D308D01BF
S11301836D34101700E932621700DB2033170100C6
S1130193E75FC10D2732CCCC001F01E6024F3406C2
S11301A3E65F1D10A3E12720E65F3404EC5DC30082
S11301B301ED5D83000130C9FF7C308BE6E0E78409
S11301C3EC5D108300802DC55F3404EC5D30C9FF02
S11301D37C308BE6E0E784308D0132341017008FD6
S11301E3326230C9FF7C3410170084326217009CDA
S10C01F31700294F5F32C435C026
S11301FCAD9FD3E51F8939AD9FD3FB1F89395FAD03
S113020C9FD3F727015C39A663AD9FD3F9396E9F51
S113021CD3F3397ECD0339A663E665AE66BDDE0045
S113022C39A663E665AE66BDDE0339BDDE0639AEBE
S113023C62BDDE0939AE62BDDE0C39AE62BDDE0FC5
S113024C39AE62BDDE1239BDDE1539BDDE1839A6F4
S10A025C63E665BDDE1B39FA
S1130263A663BDCD1839BDCD1B860ABDCD1839AEE5
S113027362A680810A2605BDCD18860DBDCD18263C
S1130283F0395FA663BDCD2125015C39BDCD243989
S1130293BDCD271F8939BDCD2A39AE62BDCD3C39C9
S10402A3391D
S10402A4391C
S10402A5391B
S11302A668656C6C6F20776F726C64200D0A00466B
S11302B64C4558204E6577204469736B205465730A
S11302C6742050726F6772616D200056657273698F
S11302D66F6E20312E30200A006D656D656E6420C8
S11302E628737472756374293A20005479706520F2
S11302F661206C696E6520616E642070726573732B
S11303062052455455524E3A2000596F752074793F
S10903167065643A20004A
S9030000FC
