S01B00005B6C77746F6F6C7320342E32335D20716C6F61642E61736D91
S113C1002008000000010100000010CEC07F8EC393
S113C110006F03BDDE098EC300BDDE09FCC105FD51
S113C120C300108EC4008D2F8102270A811626F6C3
S113C1308D258D2320F08D1FB7C1088D1AB7C10935
S113C1408D151F894D27DFBEC10834148D093514A0
S113C150A7805A26F520CF108CC40026108EC30069
S113C160EC84270CBDDE002697108EC304A6A039EC
S113C1708EC179BDF7317ECD00464C4558204144EF
S113C1804150544154494F4E20464F522054484543
S113C19020484236334330394D2053424320514CDA
S113C1A04F41442056312028352F342F3230323538
S107C1B0290D0A0047
S503000CF0
S9030000FC
