:020000040000FA
:100000007EC0498D0327FC39B6A00085012706B6BE
:10001000A001847F394F398D243402810D270BB71D
:10002000A0010C799679917825100F798D0F860DA6
:10003000B7A0018D08860AB7A0013502393402B68F
:10004000A000850227F935023910CE01EE966E81A7
:1000500055260A9E6FA684811226026E848E02188F
:100060006F83300126FA8E02176F809F19A6024314
:10007000A702A10226063001630120F19F719F278C
:100080009F233089FF389F211F148EC0D1CE007668
:10009000C612BDC1B1CE00A7C604BDC1B186399795
:1000A000F0BDC4BF8E00B59F8DCECBD6C60AEF8102
:1000B0005A26FB8615B7A0008EC106BDD0ED8EC0B6
:1000C000C99F6F8655976E200412BDC4D97EC42780
:1000D0003B10405000CBD60C8426020C83B60000A7
:1000E0007EC1C27EC1C17EC0D07ECBD6804FC752FA
:1000F0005932C220C32F1DC2C2C1D100000000006E
:1001000000000000000000363830392045585445C2
:100110004E4445442042415349430D284329203150
:10012000393832204259204D4943524F534F46549B
:100130000D0D0034169E76DC789F6AD76C976D356E
:10014000960F738E00F4C601BDC003810826075ABE
:1001500027EF301F20348115260A5A27E48608BD70
:10016000C01720F681031A012705810D260D4F3493
:1001700001BDD0AD6F848E00F33581812025C9810A
:100180007B24C5C1FA24C1A7805CBDC01720B92754
:1001900005BDCEC99F7A6E9F007A7EC5A89673264C
:1001A00003BDC0080F73975310260C6F97567ECE71
:1001B00027A680A7C05A26F939399D8227FB7ECA17
:1001C000083B813A240A812026020E7C803080D0B0
:1001D00039D3CBD43FD3E400ADD670D6C5CEDCCE78
:1001E0000DCC89CEA2CE2CCE18D775D73DD746D808
:1001F000B7D8E9D80BDA71D845DF43CE37CE54CE25
:100200005BC19DCC7ADA79DB39DB0979D11679D1FA
:100210000D7BD21D7BD2E27FD84E50CA6146CA60A8
:10022000464FD247CF5245CD4259C5454C53C5499B
:10023000C6444154C15052494ED44FCE494E5055F8
:10024000D4454EC44E4558D44449CD524541C4527C
:1002500055CE524553544F52C55245545552CE5324
:10026000544FD0504F4BC5434F4ED44C4953D443B9
:100270004C4541D24E45D7455845C354524FCE54B4
:10028000524F46C64445CC4445C64C494EC55245DE
:100290004E55CD454449D4544142A854CF5355C23C
:1002A000544845CE4E4FD4535445D04F46C6ABADBF
:1002B000AAAFDE414EC44FD2BEBDBC46CE55534957
:1002C0004EC75347CE494ED44142D35553D2524ED6
:1002D000C45349CE504545CB4C45CE535452A456F9
:1002E00041CC4153C3434852A44154CE434FD3540D
:1002F00041CE4558D04649D84C4FC7504FD35351A3
:10030000D2484558A44C454654A45249474854A4A1
:100310004D4944A4494E4B4559A44D45CD564152F3
:100320005054D2494E5354D2535452494E47A4C408
:10033000EDC63BC698C5BFC698C6C9C695D072C69D
:10034000F7C7A4C5C2C889CADAC7DEC630C5A1C608
:1003500075C5C6CEE3C5EBCEEAC5FCC4BDC18FDA18
:100360006CDA6DDCE8DC2CE3D6DD72D8F84E46534F
:100370004E52474F4446434F564F4D554C425344BF
:10038000442F304944544D4F534C535354434E46DD
:1003900044414F444E494F464D4E4F4945445355B5
:1003A000464E45204552524F520020494E20000DE6
:1003B0004F4B0D000D425245414B003064C6129F19
:1003C0000FA68480802615AE019F119E3B27099CB5
:1003D0001127099E0F3A20E59E119F3B9E0F4D3934
:1003E0008D17DE4133419E433001A68236029C4781
:1003F00026F8DF45394F58D31FC3003A250810DFD0
:100400001710931725EEC60CBDC4D9BDD0B1BDD110
:10041000008EC36D3A8D318D2F8EC3A2BDD0ED9667
:10042000684C2703BDD516BDD0B18EC3AFBDD0ED8E
:10043000BDC141CEFFFFDF6825F69F839D7C27F07D
:10044000250BBDCF9F7EC576A6807ED102BDC71C81
:100450009E2B9FF1BDCF9FD7038D4C2512DC47A368
:1004600084D31BDD1BEE843702A7809C1B26F896E5
:10047000F3271CDC1BDD43DB038900DD41BDC3E04A
:10048000CE00EF3702A7809C4526F89E419F1B8D2A
:10049000368D02209B9E19EC8427213304A6C026AA
:1004A000FCEF84AE8420F0DC2B9E19EE842709102B
:1004B000A3022306AE8420F31A019F473926FB9E30
:1004C000196F806F809F1B9E19BDC6709E279F234A
:1004D000BDC5A19E1B9F1D9F1F8E00C99F0BAEE433
:1004E00010DE216FE20F2D0F2E0F086E848680978D
:1004F00008BDC73EBDC3BB326226049E0F3285C60F
:1005000009BDC3F5BDC69DDC683416C6A0BDCA00D2
:10051000BDC8D4BDC8D2D654CA7FD450D750108ECF
:10052000C5257EC97B8ED216BDD3659D8281A4264A
:10053000059D7CBDC8D2BDD3BEBDC977DC3B3406AA
:10054000868034021CAF8D609E839F2FA680270774
:10055000813A27227ECA08A68197002775EC80DDA4
:10056000689F83968C270F865BBDC0179668BDD5A4
:100570001D865DBDC0179D7C8D0220C827294D10AA
:100580002A01BB81FF270F819E22C9BEC0F4481FEC
:10059000893A9D7C6E949D7C8197102714F37ECAC6
:1005A000089E19301F9F3339BDC008270A810327D1
:1005B0001581132703977339BDC00827FB20EE7EF2
:1005C000E47C9D8220021A0126319E839F2F060023
:1005D00032629E688CFFFF27069F299E2F9F2D8EDB
:1005E000C3B30D00102AFE3F7EC41C260EC6209EFB
:1005F0002D1027FE139F839E299F6839272CBDCB82
:100600007234069E279D82270CBDC9FEBDCEC9301F
:100610001F9C7122181F10A3E125121F0383003AAB
:10062000250B931B2507DF219F277EC4CC7EC406A4
:100630009D821027FE91BDC4CC20191F899D7CC1CD
:10064000A02716C1A12645C603BDC3F5DE839E685B
:1006500086A134528D037EC5449D82BDC71C8D404A
:100660003001DC2B10936822029E19BDC4AB251704
:10067000301F9F833926FD86FF973BBDC3BB1F14E8
:100680008121270BC6048CC60E7EC4087ECA08359D
:10069000529F68DF838D068C8D069F8339C63A860C
:1006A0005FD7015F9E831F98D6019701A68427EC30
:1006B0003404A1E027E63001812227EA4C260230EB
:1006C00001818626E70C0420E3BDC8D29D8281818A
:1006D0002705C6A2BDCA00964F26130F048DB64D3E
:1006E00027BA9D7C818426F50A042AF19D7C9D828F
:1006F0001025FF657EC57CBDCE97C681BDCA00347E
:100700000281A1270481A026830A53260535047E91
:10071000C63D9D7C8D06812C27EF35849E749F2BD2
:10072000246180309701DC2B811822DB584958491D
:10073000D32B5849DB018900DD2B9D7C20E2BDCA0B
:10074000E39F3BC6AEBDCA0096063402BDC8E7357E
:100750000246BDC8D910270C2B9E52DC2110A302E3
:1007600024119C1B250DE684BDCC999E4DBDCDCF9B
:100770008E00569F4DBDCE01DE4D9E3B3726A78491
:1007800010AF02393F5245444F0D007EC408960910
:1007900027079E319F687ECA088EC783BDD0ED9E15
:1007A0002F9F8339C6169E68300127DF8D0139815E
:1007B00022260BBDC9D5C63BBDCA00BDD0F08E00F8
:1007C000F36F848D06C62CE7842016BDD100BDD002
:1007D000FDBDC141240532647EC5CEC62E399E338F
:1007E000864F97099F35BDCAE39F3B9E839F2B9EF3
:1007F00035A684260996092651BDD1008DCD9F834B
:100800009D7CD60627239E8397018122270E301FC9
:100810004F9701BDC133863A9701862C9702BDCC14
:10082000AABDC9DABDC7592006BDD463BDD3849D16
:10083000822706812C1026FF529E839F359E2B9F78
:10084000839D822721BDC9FE209C9F83BDC69D300C
:10085000014D260AC606EE812741EC81DD31A684D2
:10086000818626E620989E35D6091026FD37A68477
:1008700027068EC8787ED0ED393F45585452412026
:1008800049474E4F5245440D0026049E742003BD37
:10089000CAE39F3BBDC3BB2704C60020471F1430DB
:1008A00003BDD365A66897549E3BBDD113BDD384C9
:1008B0003069BDD3E7E068270CAE6E9F68AEE810E4
:1008C0009F837EC54432E8129D82812C26F49D7C54
:1008D0008DBD8D131CFE7D1A010D0625032A998CF2
:1008E0002B96C6187EC4088D6E4F8C34043402C615
:1008F00001BDC3F5BDC9B40F3F9D8280AD251381F5
:1009000003240F810149983F913F2564973F9D7CC7
:1009100020E9D63F26331024006B8B072467990605
:100920001027047789FF340248ABE08EC20B308673
:100930003502A18424558D9C34028D299E3D3502BB
:10094000261D4D1027006A204B0806598D098EC9B7
:100950005CD73F0F0620D99E837EC67064CA80A1F3
:1009600084243120D3EC0134068D08D63F16FF7B5A
:100970007ECA08D654A68435203404D64F9E50DE55
:100980005234546EA49E74A6E0272681642703BDCA
:10099000C8D49F3D3504815A2719817D271554D726
:1009A0000A3552975C9F5DDF5F3504D761D854D715
:1009B00062D64F39BDDC010F069D7C24037ED463D3
:1009C000BDCB2E2450812E27F481A7274081A62756
:1009D000E38122260A9E83BDCCA49E649F83398135
:1009E000A3260D865ABDC8EBBDCB7943537ECC8080
:1009F0004C272E8D06BDC8E7C6298CC6288CC62C70
:100A0000E19F008326020E7CC6027EC408867DBD5F
:100A1000C8EB7ED63ABDCAE39F52960626957ED392
:100A2000659D7C1F89589D7CC13823037ECA08348C
:100A300004C12A251EC130241C8DC0A6E4BDC8E710
:100A40008DBCBDC8D73502DE523442BDCE973502CB
:100A500034068E8D9E3504BEC0F93AAD947EC8D45E
:100A6000864F9703BDCB79DD01BDD39BBDCB790DFF
:100A70000326069401D40220049A01DA027ECC8077
:100A8000BDC8D9261096618A7F945D975D8E005C03
:100A9000BDD3E720360F060A3FBDCDE3D7569F589A
:100AA0009E5FBDCDE596563404A0E027078601245D
:100AB00003D656409754DE585C5A2604D654200B71
:100AC000A680A1C027F3C6FF240150CB0159D40A48
:100AD0002702C6FF7ED3CDBDC9FEC6018D089D820B
:100AE00026F5395F9D82D70597379D828D40102569
:100AF000FF165FD7069D7C25048D33250A1F899D2F
:100B00007C25FC8D2924F8812426060306CB809DB4
:100B10007CD7389A088028102700750F089E1BDCA8
:100B2000379C1D271210A381273E300520F38141F9
:100B30002504805B80A5398E0074EEE41183CA1809
:100B40002728DC1FDD43C30007DD419E1D9F47BDF5
:100B5000C3E09E419F1F9E459F1D9E47DC37ED8150
:100B60004F5FED84ED02A7049F39399080000000AB
:100B70009D7CBDC8D296542B5DBDC8D4964F819044
:100B800025088ECB6BBDD3E7264CBDD419DC52397A
:100B9000DC053406125F9E3734148DD435349F370C
:100BA000DE5234605C9D82812C27EBD703BDC9F8EF
:100BB0003506DD059E1D9C1F2721DC3710A38427E9
:100BC00006EC02308B20EFC6129605260BD603E109
:100BD000042759C6108CC6087EC408CC0005DD6405
:100BE000DC37ED84D603E704BDC3F59F41C60B4F48
:100BF0000D0527053506C30001ED058D5DDD64306B
:100C0000020A0326E89F0FD30F1025F7F91F01BD35
:100C1000C3F9830035DD1F4F301FA7059C0F26F851
:100C20009E41961F9341ED029605262DE604D703BB
:100C30004F5FDD643506DD5210A305243ADE6427DC
:100C4000048D17D35230020A0326E7EDE3584958C2
:100C500049E3E1308B30059F393986109745EC0523
:100C6000DD174F5F5849250F086509642404D31721
:100C700025050A4526EE397ECBD31F40931F214F11
:100C80000F06DD50C6907ED3D3BDC8D4CE01F0BDD3
:100C9000D52D32628E01EF200B9F4D8D5C9F58D772
:100CA0005639301F86229701970230019F629F5864
:100CB000C6FF5CA680270C91012704910226F381D0
:100CC000222702301F9F64D756DE62118301F02273
:100CD000078DC69E62BDCDD19E0B8C00F12605C648
:100CE0001E7EC4089656A700DC58ED0286FF9706C4
:100CF0009F0D9F5230059F0B390F074F3406DC23A1
:100D0000A3E0109321250ADD239E2330019F253582
:100D100084C61A030727CA8D04350420DE9E279F48
:100D2000234F5FDD4B9E219F478E00C99C0B2704FC
:100D30008D3220F89E1B9C1D27048D2220F89F4198
:100D40009E419C1F2735EC02D341DD41A6012AF0CC
:100D5000E60458CB053A9C4127E88D0820F8A60107
:100D600030022A14E6842710EC0210932322091083
:100D7000934723049F4BDD473005399E4B27FB4F9C
:100D8000E6845AD347DD439E239F41BDC3E29E4B79
:100D9000DC45ED029E45301F7ECD1FDC523406BD82
:100DA000C9B4BDC8D735109F62E6849E52EB842437
:100DB00005C61C7EC408BDCC999E62E6848D109E3B
:100DC0004D8D228D0C9E628D1CBDCCD87EC8F9AE97
:100DD00002DE255C2004A680A7C05A26F9DF25394B
:100DE000BDC8D79E52E6848D182613AE07301F9CCF
:100DF0002326083404D323DD233504300139AE0221
:100E0000399C0D26079F0B301B9F0D4F398D037E9C
:100E1000CC7F8DCC0F065D39BDCE9AC601BDCCF915
:100E20009653BDCC9DA78432627ECCD88D0220DF44
:100E30008DE0275EE684398D484FE1842303E68404
:100E40004F3406BDCC9B9E4D8D9B35043A3504BD79
:100E5000CDD120D58D2BA0844020DFC6FFD7539D58
:100E60008281292705BDC9FE8D2D8D1527245F4A56
:100E7000A18424CD1F89E08450D15323C4D65320AC
:100E8000C0BDC9F8EEE4AE659F4DA664E664326766
:100E90001F357ECBD69D7CBDC8D2BDCB754D26F20D
:100EA0000E82BDCE12102702E1DE839F833AA68414
:100EB00034526F849D82BDD4633552A784DF833959
:100EC0008D079F2BBDC9FE20CEBDC8D296542BC224
:100ED000964F819022BCBDD4199E52398DEEE68486
:100EE0007ECC7F8DDB9E2BE784393401BDC71CBDD2
:100EF000C4A79F66350127129D82271381A7260963
:100F00009D7C2706BDC71C270639CEFFFFDF2B328D
:100F1000629E66BDD0B1BDC19AEC8426037EC42713
:100F20009F66EC0210932B22F4BDD51DBDD0FD9E13
:100F3000668D10AE9F0066CE00F4A6C027D5BDD149
:100F40000220F73004108E00F4A68027512B158163
:100F50003A260DE684C18427F0C18227EC8C8621D5
:100F60008D3020E5CEC0E781FF2604A6803345847E
:100F70007F334A6DC427E7A0C42AF6ABC4EE414ACA
:100F80002B066DC02AFC20F7A6C48D066DC02AF87A
:100F900020B7108C01ED2406847FA7A06FA4399E92
:100FA00083CE00F30F430F44A68027210D43270F64
:100FB000BDCB2E241881302504813923100F4381A5
:100FC00020270A9742812227380D442719A7C027D6
:100FD00006813A27CF20D16FC06FC01F308300F148
:100FE0008E00F29F8339813F2604868720DF812788
:100FF0002613CC3A82EDC10F42A68027D09142271A
:10100000CCA7C020F481302504813C25C0301F349A
:10101000500F41CEC0E70F42334AA6C4273110AE6D
:1010200041AEE4E6A0E08027FAC18026383262357E
:1010300040DA4296412606C1842606863AEDC12052
:1010400094E7C0C18626020C44C18227AA2086CE1E
:10105000C0EC034126C03550A680A7C0BDCB2E25CD
:10106000EC034320E80C424A27AE313FE6A02AFCBD
:1010700020AF27398D0139BDDFD7273E819F275308
:10108000812C2737813B2760BDC8E79606340226AE
:1010900006BDD52ABDCCA28D573504BDC1335D2612
:1010A000089D82812C27148D549D8226CF860D2089
:1010B00051BDC13327F7966C26F339BDC133270ADA
:1010C000D66CD16B25068DE5201ED66CD06A24FC2B
:1010D000502010BDCE9581291026F92CBDC133D0EA
:1010E0006C23058D185A26FB9D7C7ED07ABDCCA43E
:1010F000BDCDE35C5A27C3A6808D0720F786208CE0
:10110000863F7EC0178ED6112009BDD280035403BE
:10111000622003BDD2805D102702808E005C1F8993
:101120005D276CD04F2769250A974F966197548E9B
:10113000004F50C1F82F594F6401BDD20BD6622A1F
:101140000B6301630263036304438900976396534F
:10115000996097539652995F97529651995E97511D
:101160009650995D97505D2A4425028D5D5F96509B
:10117000262E9651975096529751965397529663B2
:1011800097530F63CB08C1282DE44F974F975439DD
:101190008D6D5F20A85C08630953095209510950FD
:1011A0002AF3964F3404A0E0974F23DE8C250808DD
:1011B0006386009763200C0C4F27280650065106C3
:1011C00052065324048D0D27EE3903540350035166
:1011D000035203539E5230019F5226069E50300107
:1011E0009F5039C60A7EC4088E0012A6049763A6D3
:1011F00003A704A602A703A601A702965BA701CB3B
:10120000082FE89663C008270C670166026603662C
:1012100004465C26F43981000000008D6327608D50
:101220007886009713971497159716D6538D22D664
:1012300063D78BD6528D1AD663D78AD6518D12D6E4
:1012400063D789D6508D0CD663D788BDD35C7ED149
:101250006D2795439613562726241696169B60975E
:10126000169615995F97159614995E97149613998B
:101270005D46971306140615061606634F20D539EA
:10128000EC0197618A80DD5DD661D854D762EC03AA
:10129000DD5FA684975CD64F394D27169B4F464994
:1012A00028108B80974F270C966297543996544399
:1012B00020023262102AFED27ED1E3BDD3B0270DC8
:1012C0008B0225F40F62BDD11E0C4F27EB39842011
:1012D000000000BDD3B08ED2CE5FD762BDD3658C87
:1012E0008D9E2773004F8DB10C4F27CC8E0013C6F7
:1012F00004D703C6019650915D26139651915E2640
:101300000D9652915F2607965391602601431FA8C0
:1013100059240AE7800A032B34272EC6011F8A2589
:101320000E0860095F095E095D25E32BC820DF9682
:101330006090539760965F9252975F965E92519736
:101340005E965D9250975D20D8C64020D056565686
:10135000D7638D087ED16DC6147EC4089E139F503E
:101360009E159F52393402EC0197548A80DD500F4C
:1013700063E684AE039F52D74F35828E0045200628
:101380008E00408C9E3B964FA78496548A7F945043
:10139000A7019651A702DE52EF0339966197549E3A
:1013A0005C9F4F0F63965E975196549E5F9F523994
:1013B000DC4FDD5C9E519F5E9E539F604D39D64F42
:1013C0002708D65459C6FF250150398DF1D7500F43
:1013D00051C68896508080D74FDC74DD5297639752
:1013E000547ED1690F5439E68427D3E601D8542BB3
:1013F000D1D64FE184261DE601CA7FD450E10126F3
:1014000013D651E102260DD652E1032607D653E04A
:101410000426013956D85420ABD64F273DC0A0969C
:10142000542A05035BBDD1CC8E004FC1F82E06BDFA
:10143000D1FF0F5B390F5B96544906507ED20BD615
:101440004FC1A0241D8DD2D7639654D75480808677
:10145000A0974F965397017ED169D750D751D75255
:10146000D753399E749F549F4F9F519F529F479FC0
:10147000452564BDDBA0812D260403552004812B66
:1014800026049D7C2551812E2728814526289D7C78
:10149000256481A7270E812D270A81A62708812B85
:1014A0002704200603489D7C254C0D48270800474B
:1014B0002004034626CC96479045974727122A09D1
:1014C000BDD2D30C4726F92007BDD2BB0A4726F967
:1014D00096552A8E7ED63AD645D046D7453402BD9B
:1014E000D2BB3504C0308D022098BDD380BDD3CD92
:1014F0008E00407ED113D6475858DB475880303491
:1015000004ABE09747209F9B3EBC1FFD9E6E6B2760
:10151000FD9E6E6B28008EC3A98D0CDC68DD50C665
:101520009043BDD3D78D037ED0EDCE01F18620D67A
:10153000542A02862DA7C0DF6497548630D64F10F8
:101540002700C64FC18022088ED511BDD21B86F759
:1015500097458ED50CBDD3F12E0F8ED507BDD3F197
:101560002E0EBDD2BB0A4520F1BDD2D30C4520E2E0
:10157000BDD105BDD419C60196458B0A2B09810B37
:1015800024054A1F8986024A4A9747D7452E0DDE11
:1015900064862EA7C05D27048630A7C08ED616C6E7
:1015A000809653AB0397539652A90297529651A92E
:1015B0000197519650A98497505C565928E324030B
:1015C000C00B50CB2F30041F98847FA7C00A45263C
:1015D00004862EA7C053C4808CD63A26C4A6C281E6
:1015E0003027FA812E2602335F862BD647271C2A06
:1015F00003862D50A7428645A741862F4CC00A245A
:10160000FBCB3AED436F452004A7C46F418E01F137
:10161000398000000000FA0A1F0000989680FFF051
:10162000BDC0000186A0FFFFD8F0000003E8FFFF67
:10163000FF9C0000000AFFFFFFFF964F27020354A4
:10164000399F64BDD3808D058D088E00407ED21BEE
:101650009F64BDD37B9E64E680D7559F648DEE9ECC
:101660006430059F64BDD1138E00450A5526EE39BE
:10167000BDD3BE2B1F27158D10BDD3808D0E8E00C0
:10168000408DCA8ED216BDD1137ED43F9EB19F50DD
:101690009EB39F52BED6C19F5DBED6C39F5FBDD2D3
:1016A00021DC8AC3658BDDB3DD52DC88C9B08905D6
:1016B000DDB1DD500F548680974F961597637ED12C
:1016C0006D40E64DABBDD3B08ED70AD661BDD2DA40
:1016D000BDD3B08DB40F62965CD64FBDD10D8ED701
:1016E0000FBDD10A965434022A09BDD10596542B58
:1016F00005030ABDD63A8ED70FBDD11335024D2A48
:1017000003BDD63A8ED7147ED64183490FDAA27F25
:10171000000000000584E61A2D1B862807FBF887C9
:1017200099688901872335DFE186A55DE72883492C
:101730000FDAA2A154468F138F524389CD8ED770F2
:10174000BDD1137ED6C5BDD3800F0A8DF68E004A5B
:10175000BDD3868E0040BDD3650F54960A8D0C0D07
:101760004F1027FA7E8E004A7ED2E034027ED6F3F6
:1017700081490FDAA2965434022A028D24964F34FE
:1017800002818125058ED2168DDE8ED7A5BDD6416C
:101790003502818125068ED770BDD10A35024D2ACA
:1017A000037ED63A390B76B383BDD3791EF4A6F502
:1017B0007B83FCB0107C0C1F67CA7CDE53CBC17DE1
:1017C0001464704C7DB7EA517A7D6330887E7E92D6
:1017D00044993A7E4CCC91C77FAAAAAA13810000F3
:1017E0000000037F5E56CB7980139B0B64807638B4
:1017F00093168238AA3B20803504F334813504F3F4
:1018000034808000000080317217F8BDD3BE102FE5
:10181000F3C48ED7F7964F808034028680974FBDF1
:10182000D1138ED7FCBDD2E08ED216BDD10A8ED791
:10183000E2BDD6418ED801BDD1133504BDD4EA8EA8
:10184000D8067ED21BBDD3B08ED611BDD365276717
:101850004D26037ED18B8E004ABDD3865F96612ACA
:1018600010BDD43F8E004A9661BDD3F1260343D606
:1018700001BDD39D3404BDD80B8E004ABDD21B8D53
:10188000363502461025FDB2398138AA3B29077149
:1018900034583E5674167EB31B772FEEE3857A1DBF
:1018A000841C2A7C6359580A7E75FDE7C680317214
:1018B000181081000000008ED889BDD21BBDD380D6
:1018C000964F818825037ED2ADBDD43F96018B8192
:1018D00027F44A34028E0040BDD10A8ED88EBDD680
:1018E000500F623502BDD29939BDD3BE2B037ED4D1
:1018F0003F03548DF97ED63ABDDD263262860197CC
:1019000098BDC4A71025ED7FBDCF431F208300F5F0
:10191000D797DC2BBDD51DBDD0FD8E00F4D6982603
:10192000255FBDDA4CBDE1F1250B80303402860A1B
:101930003DEBE020EDC001C90181412605BDD0ADE0
:1019400020BB814C260B8D310F98BDD0AD20C3320A
:1019500062810D260D8D22BDD0AD8E00F49F837E59
:10196000C450814527F181512606BDD0AD7EC427E4
:101970008D0220AD812026108CC6F9A6842708BDD3
:10198000C01730015A26F439814426486D8427F760
:101990008D045A26F7390A97311F3121A621A7A4B1
:1019A00026F839814927138158270D8148265C6F15
:1019B000841F108300F5D7978DBFBDDA4C810D27AA
:1019C0008E811B2725810826228C00F427EC8D456B
:1019D0008DC420E6814326CB6D84270EBDDA4C25CD
:1019E0000220F5A7808D375A26EE39D697C1F92601
:1019F0000220C734106D8026FCE682E701ACE426A5
:101A0000F83262A7808D170C9720AF810826128DBF
:101A1000045A26FB398C00F427D0301F86087EC07C
:101A200017814B2705805327013934028D1E34025C
:101A3000A68427166D6126068DE430012003BDD9EA
:101A400096A684A1E426E95A26E635A0BDC0038106
:101A50007F24F9815F2602861B810D270E811B27BB
:101A60000A81082706812025E31A0139864F978CC1
:101A7000398600D6791D7ECC80BDC9FBDC1F3406BB
:101A8000BDCAE3BDC9F835061E109C1F26517ECC89
:101A9000809D7CBDC9FBBDCAE33410EC02109321CC
:101AA000230493272312E684BDCCF93410AE62BD23
:101AB000CDCF3550AF423440BDCEC434045D271F76
:101AC000C6FF81292703BDCEC43404BDC9F8C6AE04
:101AD000BDCA008D2E1F13AE62A684A06124037EB2
:101AE000CBD64CA1E42402A7E4A6611E89AE025A1B
:101AF0003A4D270DA1E42302A6E41F891E31BDC182
:101B0000B13596BDC8E77ECDE0BDC9FBBDCE9734EB
:101B100004BDC9FEBDC8E7BDC9F896062605BDCE01
:101B20009A2003BDCE303404E661BDCC9B35062738
:101B300005A7805A26FB7ECE27BDC9FBBDC8E7C6D8
:101B400001340496062610BDCE9AE7E42791BDC95C
:101B5000FEBDC8E7BDC8D79E523410BDC9FEBDDB6F
:101B6000033414BDC9F8AE63BDCDE53404E1662588
:101B700023A661271CE6665A3A3184EE62E661A626
:101B8000E4A0664CA161250CA680A1C0260C5A26B3
:101B9000F7E666215F32677ECC7F6C66302120D904
:101BA0008126265C32620F520F538E00529D7C813B
:101BB0004F2712814827239D82200C81381022EE66
:101BC00047C6038D2A9D7C25F20F500F510F060F3B
:101BD000630F54C6A0D74F7ED16D9D7C250BBDCB26
:101BE0002E25E6814724E28007C6048D0220EB689B
:101BF0000169841025F5EC5A26F58030AB01A70168
:101C00003935400F069E839D7C8126279981B02718
:101C10005E81FF26089D7C8183102700AB9F836E29
:101C2000C49E68300126D9C6167EC408AE9F0083C4
:101C30008CFF83102700748D238DE6BDC9FBC68001
:101C4000D708BDCAE38D25BDC9F8C6AEBDCA009E82
:101C50004BDC83ED84DC39ED027EC695C6B0BDCA8F
:101C600000C680D7088A80BDCAE89F4B7EC8D48D45
:101C7000EB3410BDC9F38DF43540C632AE4227A90E
:101C8000109E83EEC4DF83A6043402EC84EE02349B
:101C900076BDD386BDC8D23576ED84EF023502A776
:101CA000049D821026ED61109F83399D7C8D09343F
:101CB000108D2D3540AFC4395F9D7C240680301FC8
:101CC000899D7C9E8D583A398DEEAE843410BDC905
:101CD000F38E004F96062707BDCDE39E5296063938
:101CE000C6AEBDCA007ECEC91027EEEABDC71CBD78
:101CF000C4A79F939D82271081A7263B9D7C270424
:101D00008D24200486FF972BDE938CEEC4ECC42731
:101D100006EC42932B23F49E938D15BDC4C79E936E
:101D2000BDC4977EC427BDC71C7EC1BAA6C0A7800C
:101D300011931B26F79F1B39BDDC219D7C81222638
:101D40000BBDC9D5C63BBDCA00BDD0F0327EBDC7F4
:101D5000D13262BDCAE39F3BBDC8D78E00F34FBDF1
:101D6000CCA87EC759BDC71C9E2B399E919F2B7E48
:101D7000C4A7BDC4CCCC000ADD95DD8F5FDD919D8D
:101D80008224068DE09F959D82271BBDC9FE2406F7
:101D90008DD39F919D82270EBDC9FE24068DC69FBF
:101DA0008F2749BDC1BA8DC39F939E958DBF9C93CC
:101DB000253A8D1CBDDE46BDC4958DAF9F938D3AEF
:101DC0008D0F8D36BDDEE1BDC4CCBDC4957EC4276C
:101DD000864F97989E93DC958D150D982602ED02FF
:101DE000AE848D0BD38F250481FA25EE7ECBD634BD
:101DF00006EC84350626023262399E19301F300106
:101E00008DED30033001A68427F49F0F4A270C4A3A
:101E1000272A4A26EF8603A78020E7EC016A0227DB
:101E2000014FE6036A0427015FED01DD2BBDC4A766
:101E30009E0F25E1DC476C80ED8420C66F84AE01E7
:101E4000AE029F4720EA9E1920049E8330018D9F99
:101E5000300230019F839D7C4D27EF2AF99E8381BC
:101E6000FF27EF81A227128184270E818126E79D1B
:101E70007C81A0270481A126DB9D7C25049D8220F6
:101E8000D79E833410BDC71C9E83A682BDE1F12579
:101E9000F930011F10E061C0052720250A33845066
:101EA0003085BDDD3020149F479E1B9F43503085F9
:101EB0009F419F1BBDC3E09E459F8335108601A7B0
:101EC00084A702A704D62B2604C6016C02E701D61C
:101ED0002C2604C6016C04E7039D82812C279A20DE
:101EE0009C9E19301F3001EC02DD68BDDDEF300330
:101EF0003001A68427EF4A271B800226F334108E78
:101F0000DF3EBDD0EDAEE4EC01BDD51DBDD516BDA7
:101F1000D0AD35103410EC01DD52BDDBC9BDD52A82
:101F20003540C6053001A68427055AA7C020F530E4
:101F3000C45D27BE31C433C5BDDD3030A420B355E8
:101F40004C2000BDCECC8E01F0C60434045F860464
:101F500008530952594A26F85D260AA6E44A27057D
:101F60008C01F0270CCB30C1392302CB07E7806FFF
:101F70008435045A26D532628E01EF7ECCA48601C8
:101F800097995ABDE11F9D8210270093D793BDC832
:101F9000E7BDC8D79E529F4DD699BDCE39BDD0F072
:101FA0009E52D699E0845A102B014FBDD0FD20F6E9
:101FB000D7939F0F86029799A684812527C48120F5
:101FC00026070C9930015A26EF9E0FD6938625BD21
:101FD000E11FBDC017202981B12701393262BDC878
:101FE000E9BDC8D7C63BBDCA009E529F9520069644
:101FF0009727089E950F97E68426037ECBD6AE02E0
:102000000F9A0F99A68081211027FF728123275BE9
:102010005A2616BDE11FBDC0179D8226D29697266F
:1020200003BDD0AD9E957ECDE5812B2609BDE11F78
:102030008608979A20CC812E274E81251027FF7085
:10204000A184268B81242719812A26F6969A8A2034
:10205000979AC1022511A6018124260B5A30010C42
:1020600099969A8A10979A30010C990F980C995A60
:102070002749A680812E271E812327F1812C262126
:10208000969A8A40979A20E5A68481231026FF3FDE
:102090008601979830010C985A2720A68081232723
:1020A000F5815E2616A1842612A101260EA1022624
:1020B0000AC1042506C00430040C9A301F0C9996FE
:1020C0009A850826180A995D2713A684802D27066D
:1020D00081FE260986088A049A9A979A5A9D821048
:1020E00027FF3CD793BDC8D296999B9881111022A7
:1020F000EAE4BDE12C301FBDD0ED0F979D82270D86
:102100009797813B2705BDC9FE20029D7C9E95E6E1
:1021100084D093AE023AD6931026FEE47EE01934C2
:1021200002862B0D9A2703BDC0173582CE01F2C659
:1021300020969A85082702C62B0D542A040F54C6F0
:102140002DE7C0C630E7C08401102601078ED511E7
:10215000BDD3F12B15BDD52AA68026FCA682A701EA
:102160008C01F126F78625A78439964F97472703D8
:10217000BDE3149647102B0081409B998009BDE276
:1021800031BDE3AABDE3499647BDE3C89647BDE329
:102190009096982602335F4ABDE231BDE2CC4D27CE
:1021A00006C12A2702E7C06FC48E01F130019F0FDC
:1021B000963A901090992738A684812027EE812A9C
:1021C00027EA4F3402A680812D27F8812B27F4813E
:1021D0002427F08130260EA6018D1625083502A78A
:1021E0008226FA20C735024D26FB9E0F8625A78240
:1021F0003981302504803A80C639969827014A9B58
:10220000472B014F34022A0A3402BDD2D335024C87
:1022100020F49647A0E097478B092B1996998009DF
:1022200090478D0DBDE3AA201D34028630A7C0352E
:10223000024A2AF53996998DF8BDE39486F79047BE
:102240008DEF0F450F97BDE34996982602DE399B27
:102250004716FF43964F34022703BDE31496982791
:10226000014A9B997F01F1D69AC40426037301F1B8
:10227000BB01F1800934022A0A3402BDD2D33502EF
:102280004C20F4A6E42B014F409B994CBB01F197E5
:10229000450F97BDE3493502BDE3C8969826023342
:1022A0005FE6E02709D647CB09D099F001F1862BEC
:1022B0005D2A03862D50A7418645A7C1862F4CC0B5
:1022C0000A24FBCB3AEDC16FC47EE19B8E01F2E69E
:1022D0008434048620D69AC52035042708862AC16E
:1022E0002026021F893404A780E6842710C14527D1
:1022F0000CC13027F2C12C27EEC12E26048630A750
:1023000082969A85102704C624E782840435042621
:1023100002E7823934404F9747D64FC18022118E51
:10232000D511BDD21B9647800920ECBDD2D30C47F6
:102330008ED50CBDD3F12EF38ED507BDD3F12E076C
:10234000BDD2BB0A4720F135C03440BDD105BDD454
:102350001935408ED616C6808D369653AB039753EB
:102360009652A90297529651A90197519650A98465
:1023700097505C565928E32403C00B50CB2F3004F0
:102380001F98847FA7C053C4808CD63A26CA6FC4D6
:102390000A452609DF39862EA7C00F97390A9726E6
:1023A0000886039797862CA7C03996478B0A9745CE
:1023B0004C800324FC8B059797969A8440260297BD
:1023C000973934028DCA35024A2B0A34028630A767
:0F23D000C0A6E026ED3981891027F95C7ECA0886
:102437007EE47F7EEE0D7EEDED7EEDA37EED817E6B
:10244700ED3A7EED1D7EEE407EEE227EEDFB7EEECA
:10245700017EEDCA7EEDC07EEDBC7EEDE07EEDD661
:102467007EEC247EEC017EF0DA7EEE7C7EEE6B7EE7
:10247700E8C17EE4BB7EE47F10CE9FFE8E9F5B6F3C
:10248700808C9FCD25F98EA000BF9F6A1719028EF9
:10249700A000BF9F6C1718F98603B79F69CC9F5B95
:1024A700FD9F7A86D0B79F6ECCF37EFD9F65CCF3F8
:1024B70013FD9F671709180A0D4D4F4E30392056E7
:1024C700657273696F6E20332E370D0A4275696C1A
:1024D700643A20323032342D3034313120403133B8
:1024E7003A34393A3438204344540D0A28432931C1
:1024F7003938352D323030372044617665204475C0
:102507006E6669656C640A0D4D6F6469666963611F
:1025170074696F6E732028432932303231204A6F35
:10252700686E6E792051756573740A0D204D6F645E
:10253700696669656420666F722074686520484221
:1025470036334330394D204279205A38304461645C
:10255700FF8EE58034061043E161350626038EE5DC
:102567006DBDE4612026204D43553A2020202020D0
:102577004D43363830390A0D00204D43553A202057
:102587002020204844363330390A0D0017084020F0
:10259700554152542873293A2041544D45474133F8
:1025A700324120363842353020577261707065727B
:1025B7000A0D20456E61626C65643A204E4D4920D4
:1025C7005472617070696E670A0D20456E61626CA6
:1025D70065643A203633303920494C4C4F50202619
:1025E7002044495630205472617070696E670A0D35
:1025F700416C6C2072696768747320262072656D60
:1026070065646965732072657365727665642E0A01
:10261700FF10CE9FFE1707B72A20001707C85F8E47
:10262700E65E7F9F7C10A381271EA11E26037A9F4B
:102637007C30026D8426EE5D2615F69F7C27101FE1
:10264700891707A21E8920D71707A9AD9420C2179B
:10265700077D203FFF20BA444DE72F4444E7DE447F
:1026670052E8C14442E9924456E8004455E84543DC
:1026770052E9474356E85E4355E8A04500E79B4AC1
:1026870042E6CB4C00EC014200E9C85300E9E847B9
:1026970000EA125400EBDD464DE6F25252EA51527F
:1026A70057EA614D54EAAB5700E78B4D4DE7155894
:1026B70052EA805857EA902B00EB7C2D00EB8D3FB8
:1026C70000EBAF008EE6D717070F7EC00016072A6C
:1026D7000D0A426F6F74696E67204D532046502074
:1026E70042415349432E2E2E0D0AFF170628108309
:1026F7009F5A2F03CC9F5AFD9F7C1706F717067A20
:102707001026FF4BA780BC9F7C23F91606EC170603
:1027170005FD9F7C1706DD1706191F02A680A7A0D7
:10272700BC9F7C23F71606D21705EBFD9F7C170687
:10273700C91707051027FED91F101084FFF01F01C6
:102747003406170670C6101706AAC5032603170610
:10275700A3A6801706635A26EEC6041706965A26BE
:10276700FA3510C610A68081202504817F250286B0
:102777002E1706A75A26EE8C00002705BC9F7C2340
:10278700AD1606761705AC1F011706681705EBA7E8
:102797008416066617059C1F0117065E1F1017068D
:1027A70014C60817064EA68417060E862D17066B45
:1027B7001705C72609A78430015A26E720DB810DB4
:1027C700102706368120260517062920EA810810DA
:1027D70026FE7C301F20C217053CFD9F7C1F121769
:1027E7000618CE9F9B1708EB1F311705EC170649F4
:1027F700270610BC9F7C25ED398EE816108E9F5B4F
:102807001705D6ECA11705ADA68426F41605EB53DC
:1028170057493D0020535749323D0020535749330C
:102827003D00204952513D0020464952513D00206C
:102837004E4D493D0020494C4C4F503D00008EE81D
:102847004E108E9F6A20B955415254313D00205594
:10285700415254323D000017058C815326048631BE
:10286700201E814926048634201681462604863593
:10287700200E814E260486362006814C2602863796
:10288700803181061022FDC78E9F5B483086170571
:102897006317049FED8416056117054A803181018E
:1028A7001022FDAB8E9F6A483086170547170483B1
:1028B700ED841F011714DA1605408EE90B108E9F61
:1028C7006E8D31170513CEE935E63F3420108E00A3
:1028D70008A6C0582502862D170540313F26F23538
:1028E700208D118D0F8D0D8D138D118D0F8D0D8DEC
:1028F7000B1605061704E2A6A01604BD1704DAECAA
:10290700A11604B143433D00205B005D20413D001B
:1029170020423D002044503D0020583D0020593DB5
:102927000020553D002050433D0020533D004546C3
:1029370048494E5A5643434142445859555053000B
:102947001704A3812027278EE93D5FA18427085C10
:102957006D8026F716FCF817049A8E9F6EC1032424
:102967001B30851704141026FCE5A784201A1704CA
:102977005E5B41425D20008E9F6F20073003C004DD
:102987005830851703ADED8416046F86308E9F830C
:1029970034028642170484A6E417047F863D170491
:1029A7007AEC81260A1704272A2A2A2A00200317E5
:1029B700040317043F300135024C813825D2160431
:1029C70039170422803081081024FC83340248AB75
:1029D700E08E9F83308617041B170357ED84160478
:1029E7001917031A17041317047A7D9F7E2B0317F1
:0929F700FEC8170411813F27F608
:102A0000812027EA811B2709810D26ED739F7E20F7
:102A1000E8391702F01703E91704618E9F83C6088F
:102A200010AE812708A6A4A784863FA7A430015A28
:102A300026EE10FE9F7AB69F6EF69F713406FC9FBD
:102A40006FBE9F7210BE9F74FE9F7635096E9F9F6A
:102A5000781702E61F011703A8A6841703E226F9D8
:102A6000391702D61F011703921703151026FBE62C
:102A7000340217038CA6E4A7841703C426F7358213
:102A80001702B71F01170379EC841703B326F9392E
:102A90001702A71F0117036317029F34061703616C
:102AA000ECE4ED8417039926F7358617026FFD9F36
:102AB0007CCCFFFFFD9F9B1703471F126F80BC9FBD
:102AC0007C23F91F21860D170358170309506173E2
:102AD000733A2000FC9F9BC30001FD9F9B1702DC03
:102AE00017031817035A271CF69F9CE184264E866D
:102AF00001A784A18426134826F75CE780BC9F7C4D
:102B000023E120BF1702FA16FB0E34021702C74159
:102B10006464723A20001F101702A11702B82C201B
:102B200057726F74653A200035021702931702A698
:102B30002C20526561643A2000A684203317029647
:102B4000416464723A20001F101702701702872C2C
:102B50002045787065637465643A2000B69F9C17C1
:102B6000025E1702712C20526561643A2000A6842F
:102B700017024D17028BF69F9C16FF7E1701BB3480
:102B800006862B17029C1701B1E3E420131701AA54
:102B90003406862D17028B1701A03406EC62A3E1E0
:102BA000EDE4863D17027B35061702101602528EA1
:102BB000FA10C619A6802718817C27061702635AC7
:102BC00020F21702365A26FA17020B2D200020E4B5
:102BD00017022E17026A2704A6842AD639BE9F6AD6
:102BE0001711BE260C811B10270216BE9F6C1711F1
:102BF000BEBE9F6C1711AA26E4BE9F6A1711B020B3
:102C0000DFB69F6934021701F87F9F698D16240C87
:102C1000A6E4B79F69862E17020820ED3502B79FFC
:102C2000691601DD1701E6813A10270081815326DC
:102C3000F31701D9813027EC813527E88139275EE8
:102C40008131264217013A263DB79F7C8003B79F0A
:102C50007D17012D26301F89BB9F7CB79F7C1701F4
:102C60002026231E891F01FB9F7CF79F7C170111E3
:102C7000A780BB9F7CB79F7C7A9F7D26F0170101C0
:102C8000BB9F7C4C27258603B79F69170148203FCF
:102C90004C6F6164206572726F72FF16F97A1701CA
:102CA0006C810A2708810D270420F31A01391700C7
:102CB000D026D3B79F7CB79F7D810027E11700C145
:102CC00026C41F89BB9F7CB79F7C1700B426B71E04
:102CD000891F01FB9F7CF79F7C1700A526A8BB9F3F
:102CE0007CB79F7C17009A269DA780BB9F7CB79FCF
:102CF0007C7A9F7D26EEBDED811026FF89BB9F7CEF
:102D000027A916FF818D3A2710812026311700C68A
:102D10002D3E00FC9F781600A3FD9F78398D1B1F68
:102D200001862C1700FC8D1927838120261017009F
:102D3000A54646464600CCFFFF398D05270F16F9FC
:102D4000158D3E26091F898D3826F31E89393410CA
:102D5000BE9F728158271CBE9F7481592715BE9F44
:102D6000768155270EBE9F7281532707BE9F7881BB
:102D700050260C863D1700AA1F108D404F1F10359E
:102D8000908D2026114848484834028D162604AA02
:102D9000E41A04326139812726FB1700701700827C
:102DA0001A043917004780308109230A8007810AF5
:102DB0002507810F22031A04398B37398D021F989A
:102DC0003402444444448D023502840F8B308139EF
:102DD00023028B07204C3410AE628D04AF62359015
:102DE000A680270881FF27198D3820F4398D1E8190
:102DF0002023F98161252B845F202734028620203F
:102E0000083402860A8D1B860D8D1735823410BE5C
:102E10009F6AB69F69442503BE9F6C170F8326FBEC
:102E200035903416F69F69C5022706BE9F6A170FB4
:102E30007EF69F69C5042706BE9F6C170F713596F5
:102E40003410BE9F6AF69F692B07170F5481202606
:102E500016CA80170F4B8120270AC47F810D2704D3
:102E6000811B26EDF79F69811B359010BE9F78CEA0
:102E70009F9B1702651F3117FF66200A10BE9F78BF
:102E8000CE9F9B17025410BF9F78FE9F7FECC0819E
:102E9000102612E6C4C122250CC12F2208A6C01795
:102EA000021627053981162606ECC130CB20348165
:102EB000172606ECC130CB20208122250A812F2243
:102EC000061701F427053981202606E6C030C52003
:102ED00012818D2612E6C030C510BE9F7AEFA31076
:102EE000BF9F7ABF9F7839811F26208D0139A6C4E4
:102EF000840F81052610A6C44444448EF9CC840F67
:102F0000AE86EC84202E3262160151811E261910E5
:102F1000BE9F78A6C484F081502607A6C4488DDBE6
:102F200020028DCA10AF84398139260CFE9F7A3772
:102F300006FF9F7AFD9F78398135260DBE9F7A1056
:102F40008EF9D88D15BF9F7A398137262EBE9F7690
:102F5000108EF9E88D04BF9F7639A6C4C6045A4482
:102F6000241334065D2B06A680A7B12004EC81ED66
:102F7000B1350620E931224D26E43981BD26048D84
:102F8000062021817E2604ECC120A9819D26048D86
:102F9000062011810E2607E6C0B69F71209681ADEE
:102FA000260B8D0FBE9F7AEF83BF9F7A39816E10FB
:102FB0002600A9A6C034028460444444448EF9CE5D
:102FC00010AE8610BF9F7C10AEA4A6E42B0C841F0D
:102FD000811025028AE030A6205E848F8184260439
:102FE0001F21205481882604E6C0201A81892606E4
:102FF000ECC030AB204281862605F69F6F2007810A
:10300000852607F69F7030A5202E818B2607FC9F12
:103010006F30AB20238180260430A02016818126CA
:103020000430A1200E8182260430A220068183264E
:103030000930A310AF9F9F7C2016818C2606E6C026
:1030400030C5200C818D2606ECC130CB2002AEC1EC
:10305000350285102702AE84BF9F7839335F8E9F7B
:10306000CD11B39F782406A6C0A78020F4867EA742
:1030700080CCF098ED8410FF9F7C10FE9F7AB69F65
:103080006EF69F713406FC9F6FBE9F7210BE9F74D8
:10309000FE9F7635097E9FCD3409FD9F6FBF9F72DD
:1030A00010BF9F74FF9F763506B79F6EF79F711014
:1030B000FF9F7A10FE9F7C39C603812F2602C60629
:1030C000802248488EF9913086B69F6EA480A180F8
:1030D00027065A26F986FF394F3910BF9F7F3440A3
:1030E000CC201AA7C05A26FB8EF453A6A481102721
:1030F000098111260A8EF76220038EF6ED3121A692
:1031000080A1A4270C81CF2704300220F210BE9F9B
:103110007F3121A680B79F81E68486043D8EF77DAE
:10312000308BC604A680A7C05A26F9B69F81840FAB
:1031300010270173C620E7C0E7C04A26068623A7EA
:10314000C020104A26068623A7C020114A260B86D7
:103150003CA7C0A6A017019220084A2608ECA11798
:1031600001901601424A102600CBA6A0B79F822BE1
:1031700004841F201485102704C65BE7C0848F8158
:1031800084272E81882607A6A017015E2023818927
:103190002607ECA117015B201881862604864120B2
:1031A0000E8185260486422006818B26068644A74A
:1031B000C0202C818F2607ECA11701362054818C6A
:1031C0002607A6A01701232009818D2612ECA1173E
:1031D00001208EF41EA680A7C0815226F8203386D7
:1031E0002CA7C0B69F82C62D848F8182270681833B
:1031F0002604E7C0E7C0B69F824444444444C6580E
:103200008403270CC6594A2707C6554A2702C653C6
:10321000E7C0B69F82C62B848F81802706818126D6
:1032200004E7C0E7C0B69F822A0885102704865DA0
:10323000A7C01600724A2635A6A08EF44244242563
:103240003406EC81815526077D9F812A028653A78B
:10325000C05D2702E7C035064D270F3402862CA734
:10326000C0350220D830024D26D316003A4A262314
:10327000A6A4444444448D0B862CA7C0A6A08D036D
:10328000160024840F488EF422EC86A7C05D270226
:10329000E7C0394A2608E6A030A51F102006ECA199
:1032A0003420E3E117004B86FFA7C4EEE43420BED0
:1032B0009F7F1F101700451F981700405FACE42444
:1032C0000A5C3341A68017003320F23262EEE43309
:1032D000C814BE9F7F5A2B10A68081202504817FB1
:1032E0002502862EA7C020ED35C034028624A7C053
:1032F00020083404C624E7C08D0235023402444459
:1033000044448D023502840F8B30813923028B07B0
:10331000A7C0398E9F6EC60CA6E0A7805A26F9106A
:10332000FF9F7A8EF36A113C80260B8EF355113C79
:103330004026038EF33FBDE46117F58516F2D92AC6
:103340002A2A20554B4E4F574E2054726170202A26
:103350002A2A0D0A002A2A2A20494C4C4F50205470
:10336000726170202A2A2A0D0A002A2A2A2044493A
:1033700056302054726170202A2A2A0D0A008E9F2E
:103380006EC60CA6E0A7805A26F910FF9F7A17FA9E
:10339000452A2A2A204E4D4920496E74657272755D
:1033A0007074202A2A2AFF205C108E9F83AE6A3018
:1033B0001FC608ACA4271031235A26F7E662AE6474
:1033C00010AE666E9F9F5BF79F818E9F6EC60AA6AA
:1033D000E0A7805A26F93510301FBF9F7810FF9F55
:1033E0007A17F9F22A2A2A20427265616B706F6996
:1033F0006E742023008638B09F8117FA2517F9D6FE
:10340000202A2A2AFF17F4B98E9F83C60810AE819E
:103410002704A684A7A430015A26F216F1FA2C50EC
:1034200043524400580059005500530050433F0098
:103430003F0041004200434344503F003F003F00F3
:103440003F0043434100420044505800590055009A
:10345000504300860101960301A60501B60401C68A
:103460000102D60302E60502F60402CC0203DC03E5
:1034700003EC0503FC0403CE0204DE0304EE0504A2
:10348000FE04048E02059E0305AE0505BE040597E5
:103490000306A70506B70406D70307E70507F704E1
:1034A00007DD0308ED0508FD0408DF0309EF050942
:1034B000FF04099F030AAF050ABF040A3A000B89FB
:1034C000010C99030CA9050CB9040CC9010DD90311
:1034D0000DE9050DF9040D8B010E9B030EAB050ED6
:1034E000BB040ECB010FDB030FEB050FFB040FC377
:1034F0000210D30310E30510F30410480011580024
:1035000012080313680513780413470014570015B5
:10351000070316670516770416850117950317A587
:103520000517B50417C50118D50318E50518F504E6
:10353000184F00195F001A0F031B6F051B7F041B38
:1035400081011C91031CA1051CB1041CC1011DD1EA
:10355000031DE1051DF1041D8C021E9C031EAC051C
:103560001EBC041E43001F530020030321630521DA
:103570007304213C01221900234A00245A00250A21
:1035800003266A05267A0426880127980327A805BA
:1035900027B80427C80128D80328E80528F80428F4
:1035A0001E07291F072A34062B36862C35062D3791
:1035B000862E4C002F5C00300C03316C05317C04EE
:1035C000310E03326E05327E04329D0333AD053376
:1035D000BD04333205343305353005363105374403
:1035E000003854003904033A64053A74043A3D0043
:1035F0003B40003C50003D00033E60053E70043EF1
:1036000012003F8A01409A0340AA0540BA0440CA0A
:103610000141DA0341EA0541FA04411A01428401F9
:1036200043940343A40543B40443C40144D4034472
:10363000E40544F404441C01454900465900470987
:10364000034869054879044846004956004A06037C
:103650004B66054B76044B3B004C39004D82014EC6
:1036600092034EA2054EB2044EC2014FD2034FE266
:10367000054FF2044F1D0050800151900351A005E9
:1036800051B00451C00152D00352E00552F004522F
:10369000830253930353A30553B304533F005413BE
:1036A00000554D00565D00570D03586D05587D04BB
:1036B00058160963170964200865210866220867FF
:1036C00023086824086925086A26086B27086C28DF
:1036D000086D29086E2A086F2B08702C08712D08B8
:1036E000722E08732F08748D0884CF00008302594E
:1036F0008C025A8E025C9303599C035A9E035C9F72
:10370000035EA30559AC055AAE055CAF055EB30474
:1037100059BC045ABE045CBF045ECE025BDE035B90
:10372000DF035DEE055BEF055DFE045BFF045D3FBF
:10373000005F210975220976230977240978250974
:103740007926097A27097B28097C29097D2A097E9F
:103750002B097F2C09802D09812E09822F0983CF07
:1037600001008C02609C0360AC0560BC04608302B5
:1037700061930361A30561B304613F006246434264
:10378000204C4441204C4442204C4444204C44555D
:10379000204C445820535441205354422053544405
:1037A00020535455205354582041425820414443FB
:1037B00041414443424144444141444442414444E0
:1037C0004441534C4141534C4241534C204153528C
:1037D000414153524241535220424954414249547B
:1037E00042434C5241434C5242434C5220434D5071
:1037F00041434D5042434D5058434F4D41434F4D2F
:1038000042434F4D204357414944414120444543A1
:10381000414445434244454320454F5241454F5260
:10382000424558472054465220505348535053481D
:103830005550554C5350554C55494E4341494E43B4
:1038400042494E43204A4D50204A5352204C454154
:10385000534C4541554C4541584C4541594C5352A8
:10386000414C5352424C5352204D554C204E4547EB
:10387000414E4547424E4547204E4F50204F524102
:10388000204F5242204F524343414E4441414E4407
:1038900042414E4443524F4C41524F4C42524F4C86
:1038A00020524F5241524F5242524F52205254498D
:1038B00020525453205342434153424342534558AC
:1038C0002053554241535542425355424453574960
:1038D0002053594E43545354415453544254535417
:1038E00020434D5044434D50594C4453204C44596F
:1038F00020535453205354592053574932434D5069
:1039000053434D5055535749334C4252414C425307
:10391000524252412042524E2042484920424C538A
:10392000204243432042435320424E4520424551CA
:1039300020425643204256532042504C20424D498B
:103940002042474520424C542042475420424C4597
:10395000204C42524E4C4248494C424C534C4243FC
:10396000434C4243534C424E454C4245514C4256C7
:10397000434C4256534C42504C4C424D494C4247AA
:10398000454C424C544C4247544C424C4542535295
:1039900020050000000501040501000000010101EF
:1039A00001040000000404040402000000020202FA
:1039B0000208000000080808080A000A0A0A0802AB
:1039C000020E0A00000E0802040C060E9F6F9F7282
:1039D0009F749F769F7A9F789F6E9F6F9F709F7155
:1039E0009F729F749F769F789F6E9F6F9F709F714D
:1039F0009F729F749F7A9F786E9F9F5F6E9F9F5D5F
:103A00006E9F9F616E9F9F636E9F9F656E9F9F6776
:103A1000004220302D37203C616464723E7C536547
:103A20007420627265616B706F696E74202830302B
:103A300030303D72656D6F766529004352203C72CF
:103A400065673E203C646174613E7C4368616E67DB
:103A500065207265676973746572004355203C7513
:103A60006172743E203C616464723E7C4368616EA6
:103A70006765205541525420616464726573730018
:103A80004356203C7665633E203C616464723E7C14
:103A90004368616E676520696E74657272757074D3
:103AA00020766563746F7220287665633D312D370B
:103AB000290044427C446973706C617920627265AC
:103AC000616B706F696E7473004444203C61646480
:103AD000723E2C3C616464723E7C446973706C611C
:103AE0007920646973736173656D626C6564206DC0
:103AF000656D6F727900444D203C616464723E2CA8
:103B00003C616464723E7C446973706C6179206DC1
:103B1000656D6F727920696E206865782064756DB7
:103B20007020666F726D61740044527C44697370DA
:103B30006C61792070726F636573736F7220726548
:103B4000676973746572730044557C446973706C63
:103B500061792055415254206164647265737365C4
:103B6000730044567C446973706C617920696E748B
:103B700065727275707420766563746F7273004538
:103B8000203C616464723E7C45646974206D656D9F
:103B90006F727900464D203C616464723E2C3C613A
:103BA0006464723E203C646174613E7C46696C6C66
:103BB000206D656D6F72790047205B3C61646472B3
:103BC0003E5D7C476F20286578656375746520705D
:103BD000726F6772616D29004A203C423E7C4A75D3
:103BE0006D7020746F20457874656E646564203C48
:103BF000423E61736963004C7C4C6F61642069488C
:103C00004558206F722053313920696D61676520F6
:103C100066726F6D205541525432004D4D203C610B
:103C20006464723E2C3C616464723E203C61646456
:103C3000723E7C4D6F7665206D656D6F72792028C0
:103C4000536F757263652C456E64204465737469A7
:103C50006E6174696F6E29004D54203C616464721A
:103C60003E2C3C616464723E7C4D656D6F727920C0
:103C700074657374005252203C616464723E7C52DD
:103C80006570656174696E672052454144206163C7
:103C900063657373005257203C616464723E203C3C
:103CA000646174613E7C526570656174696E672001
:103CB0005752495445206163636573730053205B19
:103CC0003C616464723E5D7C53696E676C65207311
:103CD00074657020657865637574696F6E00572030
:103CE0003C616464723E203C646174613E7C577246
:103CF00069746520746F206D656D6F72790058521C
:103D0000203C616464723E7C526570656174696ECA
:103D100067203136206269742072656164005857EB
:103D2000203C616464723E203C776F72643E7C523A
:103D30006570656174696E67203136206269742030
:103D40007772697465002B203C76616C75653E2B3B
:103D50003C76616C75653E7C486578616465636935
:103D60006D616C206164646974696F6E002D203C24
:103D700076616C75653E2D3C76616C75653E7C4860
:103D8000657861646563696D616C207375627472D6
:103D9000616374696F6E00FF8603A7848615A7842C
:103DA00039A68485012705A6011A043986FF39E65C
:103DB00084C50227FAA701396E9F9F5B6E9F9F5DA6
:103DC0006E9F9F5F6E9F9F636E9F9F616E9F9F65BB
:103DD0006E9F9F67FFFFFFFFFFFFFFFFFFFFFFFFDC
:103DE000FFFFFFFFFFFFFFFFFFFFFFFFFFFFFFFFE3
:103DF000FFFFFFFFFFFFFFFFFFFFFFFFFFFFFFFFD3
:103E0000FFFFFFFFFFFFFFFFFFFFFFFFFFFFFFFFC2
:103E1000FFFFFFFFFFFFFFFFFFFFFFFFFFFFFFFFB2
:103FF000FA0CF9F8F9FCFA04FA00F3A9FA08E47FDC
:00000001FF
